{
  "fileName": "MetalTradingCompanySmartContract.sol",
  "contractName": "MetalTradingCompanySmartContract",
  "source": "pragma solidity ^0.6.0;\n\nimport \"@openzeppelin/contracts-ethereum-package/contracts/presets/ERC20PresetMinterPauser.sol\";\nimport \"@openzeppelin/contracts-ethereum-package/contracts/access/Ownable.sol\";\nimport \"./BaseConstants.sol\";\n\n/// @title Base Metal Trading Company Smart Contract\ncontract MetalTradingCompanySmartContract is ERC20PresetMinterPauserUpgradeSafe, BaseConstants, OwnableUpgradeSafe {\n\n    // Modifiers\n\n    modifier onlyMinter() {\n        require(hasRole(MINTER_ROLE, msg.sender), \"MetalTradingCompanySmartContract: Only approved card minter\");\n        _;\n    }\n\n    modifier onlyOwnerOrAdmin() {\n        require(hasRole(DEFAULT_ADMIN_ROLE, msg.sender), \"MetalTradingCompanySmartContract: Only owner or admin user\");\n        _;\n    }\n\n    modifier onlyApproved(){\n        require(hasRole(DEFAULT_ADMIN_ROLE, msg.sender) || hasRole(MINTER_ROLE, msg.sender), \"MetalTradingCompanySmartContract: Only approved user\");\n        _;\n    }\n\n    // Functions\n\n    /// @dev Contract initialize function\n    function init() public initializer {\n\n        /// @dev test data\n\n        OWNER = msg.sender;\n        ADMIN = msg.sender;\n\n        /// @dev Init access control\n        __Ownable_init();\n        __AccessControl_init_unchained();\n\n        /// @dev Setup contract roles\n        _setupRole(DEFAULT_ADMIN_ROLE, ADMIN);\n        _setupRole(DEFAULT_ADMIN_ROLE, OWNER);\n        _setupRole(MINTER_ROLE, OWNER);\n        _setupRole(MINTER_ROLE, ADMIN);\n\n        /// @dev init ERC20\n        __ERC20PresetMinterPauser_init(NAME, SYMBOL);\n        _setupDecimals(DECIMALS);\n\n        /// @dev mint new tokens for owner wallet\n        _mint(OWNER, TOTAL_SUPPLY);\n        _approve(OWNER, OWNER, TOTAL_SUPPLY);\n        _approve(OWNER, ADMIN, TOTAL_SUPPLY);\n\n        /// @dev Transfer ownership from msg.sender address to OWNER\n        transferOwnership(OWNER);\n    }\n\n    /// @dev Create tokens on owner address\n    function addTokens(uint256 amount) public onlyOwnerOrAdmin {\n        _mint(owner(), amount);\n    }\n}\n",
  "sourcePath": "contracts/MetalTradingCompanySmartContract.sol",
  "abi": [
    {
      "anonymous": false,
      "inputs": [
        {
          "indexed": true,
          "internalType": "address",
          "name": "owner",
          "type": "address"
        },
        {
          "indexed": true,
          "internalType": "address",
          "name": "spender",
          "type": "address"
        },
        {
          "indexed": false,
          "internalType": "uint256",
          "name": "value",
          "type": "uint256"
        }
      ],
      "name": "Approval",
      "type": "event"
    },
    {
      "anonymous": false,
      "inputs": [
        {
          "indexed": true,
          "internalType": "address",
          "name": "previousOwner",
          "type": "address"
        },
        {
          "indexed": true,
          "internalType": "address",
          "name": "newOwner",
          "type": "address"
        }
      ],
      "name": "OwnershipTransferred",
      "type": "event"
    },
    {
      "anonymous": false,
      "inputs": [
        {
          "indexed": false,
          "internalType": "address",
          "name": "account",
          "type": "address"
        }
      ],
      "name": "Paused",
      "type": "event"
    },
    {
      "anonymous": false,
      "inputs": [
        {
          "indexed": true,
          "internalType": "bytes32",
          "name": "role",
          "type": "bytes32"
        },
        {
          "indexed": true,
          "internalType": "address",
          "name": "account",
          "type": "address"
        },
        {
          "indexed": true,
          "internalType": "address",
          "name": "sender",
          "type": "address"
        }
      ],
      "name": "RoleGranted",
      "type": "event"
    },
    {
      "anonymous": false,
      "inputs": [
        {
          "indexed": true,
          "internalType": "bytes32",
          "name": "role",
          "type": "bytes32"
        },
        {
          "indexed": true,
          "internalType": "address",
          "name": "account",
          "type": "address"
        },
        {
          "indexed": true,
          "internalType": "address",
          "name": "sender",
          "type": "address"
        }
      ],
      "name": "RoleRevoked",
      "type": "event"
    },
    {
      "anonymous": false,
      "inputs": [
        {
          "indexed": true,
          "internalType": "address",
          "name": "from",
          "type": "address"
        },
        {
          "indexed": true,
          "internalType": "address",
          "name": "to",
          "type": "address"
        },
        {
          "indexed": false,
          "internalType": "uint256",
          "name": "value",
          "type": "uint256"
        }
      ],
      "name": "Transfer",
      "type": "event"
    },
    {
      "anonymous": false,
      "inputs": [
        {
          "indexed": false,
          "internalType": "address",
          "name": "account",
          "type": "address"
        }
      ],
      "name": "Unpaused",
      "type": "event"
    },
    {
      "inputs": [],
      "name": "DEFAULT_ADMIN_ROLE",
      "outputs": [
        {
          "internalType": "bytes32",
          "name": "",
          "type": "bytes32"
        }
      ],
      "stateMutability": "view",
      "type": "function"
    },
    {
      "inputs": [],
      "name": "MINTER_ROLE",
      "outputs": [
        {
          "internalType": "bytes32",
          "name": "",
          "type": "bytes32"
        }
      ],
      "stateMutability": "view",
      "type": "function"
    },
    {
      "inputs": [],
      "name": "PAUSER_ROLE",
      "outputs": [
        {
          "internalType": "bytes32",
          "name": "",
          "type": "bytes32"
        }
      ],
      "stateMutability": "view",
      "type": "function"
    },
    {
      "inputs": [
        {
          "internalType": "uint256",
          "name": "amount",
          "type": "uint256"
        }
      ],
      "name": "addTokens",
      "outputs": [],
      "stateMutability": "nonpayable",
      "type": "function"
    },
    {
      "inputs": [
        {
          "internalType": "address",
          "name": "owner",
          "type": "address"
        },
        {
          "internalType": "address",
          "name": "spender",
          "type": "address"
        }
      ],
      "name": "allowance",
      "outputs": [
        {
          "internalType": "uint256",
          "name": "",
          "type": "uint256"
        }
      ],
      "stateMutability": "view",
      "type": "function"
    },
    {
      "inputs": [
        {
          "internalType": "address",
          "name": "spender",
          "type": "address"
        },
        {
          "internalType": "uint256",
          "name": "amount",
          "type": "uint256"
        }
      ],
      "name": "approve",
      "outputs": [
        {
          "internalType": "bool",
          "name": "",
          "type": "bool"
        }
      ],
      "stateMutability": "nonpayable",
      "type": "function"
    },
    {
      "inputs": [
        {
          "internalType": "address",
          "name": "account",
          "type": "address"
        }
      ],
      "name": "balanceOf",
      "outputs": [
        {
          "internalType": "uint256",
          "name": "",
          "type": "uint256"
        }
      ],
      "stateMutability": "view",
      "type": "function"
    },
    {
      "inputs": [
        {
          "internalType": "uint256",
          "name": "amount",
          "type": "uint256"
        }
      ],
      "name": "burn",
      "outputs": [],
      "stateMutability": "nonpayable",
      "type": "function"
    },
    {
      "inputs": [
        {
          "internalType": "address",
          "name": "account",
          "type": "address"
        },
        {
          "internalType": "uint256",
          "name": "amount",
          "type": "uint256"
        }
      ],
      "name": "burnFrom",
      "outputs": [],
      "stateMutability": "nonpayable",
      "type": "function"
    },
    {
      "inputs": [],
      "name": "decimals",
      "outputs": [
        {
          "internalType": "uint8",
          "name": "",
          "type": "uint8"
        }
      ],
      "stateMutability": "view",
      "type": "function"
    },
    {
      "inputs": [
        {
          "internalType": "address",
          "name": "spender",
          "type": "address"
        },
        {
          "internalType": "uint256",
          "name": "subtractedValue",
          "type": "uint256"
        }
      ],
      "name": "decreaseAllowance",
      "outputs": [
        {
          "internalType": "bool",
          "name": "",
          "type": "bool"
        }
      ],
      "stateMutability": "nonpayable",
      "type": "function"
    },
    {
      "inputs": [
        {
          "internalType": "bytes32",
          "name": "role",
          "type": "bytes32"
        }
      ],
      "name": "getRoleAdmin",
      "outputs": [
        {
          "internalType": "bytes32",
          "name": "",
          "type": "bytes32"
        }
      ],
      "stateMutability": "view",
      "type": "function"
    },
    {
      "inputs": [
        {
          "internalType": "bytes32",
          "name": "role",
          "type": "bytes32"
        },
        {
          "internalType": "uint256",
          "name": "index",
          "type": "uint256"
        }
      ],
      "name": "getRoleMember",
      "outputs": [
        {
          "internalType": "address",
          "name": "",
          "type": "address"
        }
      ],
      "stateMutability": "view",
      "type": "function"
    },
    {
      "inputs": [
        {
          "internalType": "bytes32",
          "name": "role",
          "type": "bytes32"
        }
      ],
      "name": "getRoleMemberCount",
      "outputs": [
        {
          "internalType": "uint256",
          "name": "",
          "type": "uint256"
        }
      ],
      "stateMutability": "view",
      "type": "function"
    },
    {
      "inputs": [
        {
          "internalType": "bytes32",
          "name": "role",
          "type": "bytes32"
        },
        {
          "internalType": "address",
          "name": "account",
          "type": "address"
        }
      ],
      "name": "grantRole",
      "outputs": [],
      "stateMutability": "nonpayable",
      "type": "function"
    },
    {
      "inputs": [
        {
          "internalType": "bytes32",
          "name": "role",
          "type": "bytes32"
        },
        {
          "internalType": "address",
          "name": "account",
          "type": "address"
        }
      ],
      "name": "hasRole",
      "outputs": [
        {
          "internalType": "bool",
          "name": "",
          "type": "bool"
        }
      ],
      "stateMutability": "view",
      "type": "function"
    },
    {
      "inputs": [
        {
          "internalType": "address",
          "name": "spender",
          "type": "address"
        },
        {
          "internalType": "uint256",
          "name": "addedValue",
          "type": "uint256"
        }
      ],
      "name": "increaseAllowance",
      "outputs": [
        {
          "internalType": "bool",
          "name": "",
          "type": "bool"
        }
      ],
      "stateMutability": "nonpayable",
      "type": "function"
    },
    {
      "inputs": [],
      "name": "init",
      "outputs": [],
      "stateMutability": "nonpayable",
      "type": "function"
    },
    {
      "inputs": [
        {
          "internalType": "string",
          "name": "name",
          "type": "string"
        },
        {
          "internalType": "string",
          "name": "symbol",
          "type": "string"
        }
      ],
      "name": "initialize",
      "outputs": [],
      "stateMutability": "nonpayable",
      "type": "function"
    },
    {
      "inputs": [
        {
          "internalType": "address",
          "name": "to",
          "type": "address"
        },
        {
          "internalType": "uint256",
          "name": "amount",
          "type": "uint256"
        }
      ],
      "name": "mint",
      "outputs": [],
      "stateMutability": "nonpayable",
      "type": "function"
    },
    {
      "inputs": [],
      "name": "name",
      "outputs": [
        {
          "internalType": "string",
          "name": "",
          "type": "string"
        }
      ],
      "stateMutability": "view",
      "type": "function"
    },
    {
      "inputs": [],
      "name": "owner",
      "outputs": [
        {
          "internalType": "address",
          "name": "",
          "type": "address"
        }
      ],
      "stateMutability": "view",
      "type": "function"
    },
    {
      "inputs": [],
      "name": "pause",
      "outputs": [],
      "stateMutability": "nonpayable",
      "type": "function"
    },
    {
      "inputs": [],
      "name": "paused",
      "outputs": [
        {
          "internalType": "bool",
          "name": "",
          "type": "bool"
        }
      ],
      "stateMutability": "view",
      "type": "function"
    },
    {
      "inputs": [],
      "name": "renounceOwnership",
      "outputs": [],
      "stateMutability": "nonpayable",
      "type": "function"
    },
    {
      "inputs": [
        {
          "internalType": "bytes32",
          "name": "role",
          "type": "bytes32"
        },
        {
          "internalType": "address",
          "name": "account",
          "type": "address"
        }
      ],
      "name": "renounceRole",
      "outputs": [],
      "stateMutability": "nonpayable",
      "type": "function"
    },
    {
      "inputs": [
        {
          "internalType": "bytes32",
          "name": "role",
          "type": "bytes32"
        },
        {
          "internalType": "address",
          "name": "account",
          "type": "address"
        }
      ],
      "name": "revokeRole",
      "outputs": [],
      "stateMutability": "nonpayable",
      "type": "function"
    },
    {
      "inputs": [],
      "name": "symbol",
      "outputs": [
        {
          "internalType": "string",
          "name": "",
          "type": "string"
        }
      ],
      "stateMutability": "view",
      "type": "function"
    },
    {
      "inputs": [],
      "name": "totalSupply",
      "outputs": [
        {
          "internalType": "uint256",
          "name": "",
          "type": "uint256"
        }
      ],
      "stateMutability": "view",
      "type": "function"
    },
    {
      "inputs": [
        {
          "internalType": "address",
          "name": "recipient",
          "type": "address"
        },
        {
          "internalType": "uint256",
          "name": "amount",
          "type": "uint256"
        }
      ],
      "name": "transfer",
      "outputs": [
        {
          "internalType": "bool",
          "name": "",
          "type": "bool"
        }
      ],
      "stateMutability": "nonpayable",
      "type": "function"
    },
    {
      "inputs": [
        {
          "internalType": "address",
          "name": "sender",
          "type": "address"
        },
        {
          "internalType": "address",
          "name": "recipient",
          "type": "address"
        },
        {
          "internalType": "uint256",
          "name": "amount",
          "type": "uint256"
        }
      ],
      "name": "transferFrom",
      "outputs": [
        {
          "internalType": "bool",
          "name": "",
          "type": "bool"
        }
      ],
      "stateMutability": "nonpayable",
      "type": "function"
    },
    {
      "inputs": [
        {
          "internalType": "address",
          "name": "newOwner",
          "type": "address"
        }
      ],
      "name": "transferOwnership",
      "outputs": [],
      "stateMutability": "nonpayable",
      "type": "function"
    },
    {
      "inputs": [],
      "name": "unpause",
      "outputs": [],
      "stateMutability": "nonpayable",
      "type": "function"
    }
  ],
  "bytecode": "0x6080604052600061019160006101000a81548173ffffffffffffffffffffffffffffffffffffffff021916908373ffffffffffffffffffffffffffffffffffffffff160217905550600061019260006101000a81548173ffffffffffffffffffffffffffffffffffffffff021916908373ffffffffffffffffffffffffffffffffffffffff1602179055506040518060400160405280600881526020017f4d542d434f494e530000000000000000000000000000000000000000000000008152506101939080519060200190620000d892919062000162565b506040518060400160405280600381526020017f4d5443000000000000000000000000000000000000000000000000000000000081525061019490805190602001906200012792919062000162565b50600461019560006101000a81548160ff021916908360ff1602179055506305f5e100610196553480156200015b57600080fd5b5062000208565b828054600181600116156101000203166002900490600052602060002090601f016020900481019282601f10620001a557805160ff1916838001178555620001d6565b82800160010185558215620001d6579182015b82811115620001d5578251825591602001919060010190620001b8565b5b509050620001e59190620001e9565b5090565b5b8082111562000204576000816000905550600101620001ea565b5090565b613f4080620002186000396000f3fe608060405234801561001057600080fd5b50600436106101fb5760003560e01c806379cc67901161011a578063a9059cbb116100ad578063d547741f1161007c578063d547741f14610a8f578063dd62ed3e14610add578063e1c7392a14610b55578063e63ab1e914610b5f578063f2fde38b14610b7d576101fb565b8063a9059cbb1461099d578063c6ed899014610a01578063ca15c87314610a2f578063d539139314610a71576101fb565b806391d14854116100e957806391d148541461083457806395d89b4114610898578063a217fddf1461091b578063a457c2d714610939576101fb565b806379cc6790146107465780638456cb59146107945780638da5cb5b1461079e5780639010d07c146107d2576101fb565b806339509351116101925780634cd88b76116101615780634cd88b76146105725780635c975abb146106c457806370a08231146106e4578063715018a61461073c576101fb565b806339509351146104885780633f4ba83a146104ec57806340c10f19146104f657806342966c6814610544576101fb565b8063248a9ca3116101ce578063248a9ca3146103895780632f2ff15d146103cb578063313ce5671461041957806336568abe1461043a576101fb565b806306fdde0314610200578063095ea7b31461028357806318160ddd146102e757806323b872dd14610305575b600080fd5b610208610bc1565b6040518080602001828103825283818151815260200191508051906020019080838360005b8381101561024857808201518184015260208101905061022d565b50505050905090810190601f1680156102755780820380516001836020036101000a031916815260200191505b509250505060405180910390f35b6102cf6004803603604081101561029957600080fd5b81019080803573ffffffffffffffffffffffffffffffffffffffff16906020019092919080359060200190929190505050610c63565b60405180821515815260200191505060405180910390f35b6102ef610c81565b6040518082815260200191505060405180910390f35b6103716004803603606081101561031b57600080fd5b81019080803573ffffffffffffffffffffffffffffffffffffffff169060200190929190803573ffffffffffffffffffffffffffffffffffffffff16906020019092919080359060200190929190505050610c8b565b60405180821515815260200191505060405180910390f35b6103b56004803603602081101561039f57600080fd5b8101908080359060200190929190505050610d64565b6040518082815260200191505060405180910390f35b610417600480360360408110156103e157600080fd5b8101908080359060200190929190803573ffffffffffffffffffffffffffffffffffffffff169060200190929190505050610d84565b005b610421610e0e565b604051808260ff16815260200191505060405180910390f35b6104866004803603604081101561045057600080fd5b8101908080359060200190929190803573ffffffffffffffffffffffffffffffffffffffff169060200190929190505050610e25565b005b6104d46004803603604081101561049e57600080fd5b81019080803573ffffffffffffffffffffffffffffffffffffffff16906020019092919080359060200190929190505050610ebe565b60405180821515815260200191505060405180910390f35b6104f4610f71565b005b6105426004803603604081101561050c57600080fd5b81019080803573ffffffffffffffffffffffffffffffffffffffff16906020019092919080359060200190929190505050611001565b005b6105706004803603602081101561055a57600080fd5b8101908080359060200190929190505050611095565b005b6106c26004803603604081101561058857600080fd5b81019080803590602001906401000000008111156105a557600080fd5b8201836020820111156105b757600080fd5b803590602001918460018302840111640100000000831117156105d957600080fd5b91908080601f016020809104026020016040519081016040528093929190818152602001838380828437600081840152601f19601f8201169050808301925050505050505091929192908035906020019064010000000081111561063c57600080fd5b82018360208201111561064e57600080fd5b8035906020019184600183028401116401000000008311171561067057600080fd5b91908080601f016020809104026020016040519081016040528093929190818152602001838380828437600081840152601f19601f8201169050808301925050505050505091929192905050506110a9565b005b6106cc6110b7565b60405180821515815260200191505060405180910390f35b610726600480360360208110156106fa57600080fd5b81019080803573ffffffffffffffffffffffffffffffffffffffff1690602001909291905050506110ce565b6040518082815260200191505060405180910390f35b610744611117565b005b6107926004803603604081101561075c57600080fd5b81019080803573ffffffffffffffffffffffffffffffffffffffff169060200190929190803590602001909291905050506112a5565b005b61079c611307565b005b6107a6611397565b604051808273ffffffffffffffffffffffffffffffffffffffff16815260200191505060405180910390f35b610808600480360360408110156107e857600080fd5b8101908080359060200190929190803590602001909291905050506113c2565b604051808273ffffffffffffffffffffffffffffffffffffffff16815260200191505060405180910390f35b6108806004803603604081101561084a57600080fd5b8101908080359060200190929190803573ffffffffffffffffffffffffffffffffffffffff1690602001909291905050506113f4565b60405180821515815260200191505060405180910390f35b6108a0611426565b6040518080602001828103825283818151815260200191508051906020019080838360005b838110156108e05780820151818401526020810190506108c5565b50505050905090810190601f16801561090d5780820380516001836020036101000a031916815260200191505b509250505060405180910390f35b6109236114c8565b6040518082815260200191505060405180910390f35b6109856004803603604081101561094f57600080fd5b81019080803573ffffffffffffffffffffffffffffffffffffffff169060200190929190803590602001909291905050506114cf565b60405180821515815260200191505060405180910390f35b6109e9600480360360408110156109b357600080fd5b81019080803573ffffffffffffffffffffffffffffffffffffffff1690602001909291908035906020019092919050505061159c565b60405180821515815260200191505060405180910390f35b610a2d60048036036020811015610a1757600080fd5b81019080803590602001909291905050506115ba565b005b610a5b60048036036020811015610a4557600080fd5b8101908080359060200190929190505050611630565b6040518082815260200191505060405180910390f35b610a79611657565b6040518082815260200191505060405180910390f35b610adb60048036036040811015610aa557600080fd5b8101908080359060200190929190803573ffffffffffffffffffffffffffffffffffffffff16906020019092919050505061167b565b005b610b3f60048036036040811015610af357600080fd5b81019080803573ffffffffffffffffffffffffffffffffffffffff169060200190929190803573ffffffffffffffffffffffffffffffffffffffff169060200190929190505050611705565b6040518082815260200191505060405180910390f35b610b5d61178c565b005b610b67611c75565b6040518082815260200191505060405180910390f35b610bbf60048036036020811015610b9357600080fd5b81019080803573ffffffffffffffffffffffffffffffffffffffff169060200190929190505050611c99565b005b6060609a8054600181600116156101000203166002900480601f016020809104026020016040519081016040528092919081815260200182805460018160011615610100020316600290048015610c595780601f10610c2e57610100808354040283529160200191610c59565b820191906000526020600020905b815481529060010190602001808311610c3c57829003601f168201915b5050505050905090565b6000610c77610c70611eac565b8484611eb4565b6001905092915050565b6000609954905090565b6000610c988484846120ab565b610d5984610ca4611eac565b610d5485604051806060016040528060288152602001613d3c60289139609860008b73ffffffffffffffffffffffffffffffffffffffff1673ffffffffffffffffffffffffffffffffffffffff1681526020019081526020016000206000610d0a611eac565b73ffffffffffffffffffffffffffffffffffffffff1673ffffffffffffffffffffffffffffffffffffffff168152602001908152602001600020546123709092919063ffffffff16565b611eb4565b600190509392505050565b600060656000838152602001908152602001600020600201549050919050565b610dab6065600084815260200190815260200160002060020154610da6611eac565b6113f4565b610e00576040517f08c379a000000000000000000000000000000000000000000000000000000000815260040180806020018281038252602f815260200180613bda602f913960400191505060405180910390fd5b610e0a8282612430565b5050565b6000609c60009054906101000a900460ff16905090565b610e2d611eac565b73ffffffffffffffffffffffffffffffffffffffff168173ffffffffffffffffffffffffffffffffffffffff1614610eb0576040517f08c379a000000000000000000000000000000000000000000000000000000000815260040180806020018281038252602f815260200180613eb2602f913960400191505060405180910390fd5b610eba82826124c4565b5050565b6000610f67610ecb611eac565b84610f628560986000610edc611eac565b73ffffffffffffffffffffffffffffffffffffffff1673ffffffffffffffffffffffffffffffffffffffff16815260200190815260200160002060008973ffffffffffffffffffffffffffffffffffffffff1673ffffffffffffffffffffffffffffffffffffffff1681526020019081526020016000205461255890919063ffffffff16565b611eb4565b6001905092915050565b610fa27f65d7a28e3265b37a6474929f336521b332c1681b933f6cb9f3376673440d862a610f9d611eac565b6113f4565b610ff7576040517f08c379a0000000000000000000000000000000000000000000000000000000008152600401808060200182810382526039815260200180613c2b6039913960400191505060405180910390fd5b610fff6125e0565b565b6110327f9f2df0fed2c77648de5860a4cc508cd0818c85b8b8a1ab4ceeef8d981c8956a661102d611eac565b6113f4565b611087576040517f08c379a0000000000000000000000000000000000000000000000000000000008152600401808060200182810382526036815260200180613d646036913960400191505060405180910390fd5b61109182826126d3565b5050565b6110a66110a0611eac565b8261289c565b50565b6110b38282612a62565b5050565b600060fb60009054906101000a900460ff16905090565b6000609760008373ffffffffffffffffffffffffffffffffffffffff1673ffffffffffffffffffffffffffffffffffffffff168152602001908152602001600020549050919050565b61111f611eac565b73ffffffffffffffffffffffffffffffffffffffff1661019760009054906101000a900473ffffffffffffffffffffffffffffffffffffffff1673ffffffffffffffffffffffffffffffffffffffff16146111e2576040517f08c379a00000000000000000000000000000000000000000000000000000000081526004018080602001828103825260208152602001807f4f776e61626c653a2063616c6c6572206973206e6f7420746865206f776e657281525060200191505060405180910390fd5b600073ffffffffffffffffffffffffffffffffffffffff1661019760009054906101000a900473ffffffffffffffffffffffffffffffffffffffff1673ffffffffffffffffffffffffffffffffffffffff167f8be0079c531659141344cd1fd0a4f28419497f9722a3daafe3b4186f6b6457e060405160405180910390a3600061019760006101000a81548173ffffffffffffffffffffffffffffffffffffffff021916908373ffffffffffffffffffffffffffffffffffffffff160217905550565b60006112e482604051806060016040528060248152602001613dc8602491396112d5866112d0611eac565b611705565b6123709092919063ffffffff16565b90506112f8836112f2611eac565b83611eb4565b611302838361289c565b505050565b6113387f65d7a28e3265b37a6474929f336521b332c1681b933f6cb9f3376673440d862a611333611eac565b6113f4565b61138d576040517f08c379a0000000000000000000000000000000000000000000000000000000008152600401808060200182810382526037815260200180613e566037913960400191505060405180910390fd5b611395612b9e565b565b600061019760009054906101000a900473ffffffffffffffffffffffffffffffffffffffff16905090565b60006113ec8260656000868152602001908152602001600020600001612c9290919063ffffffff16565b905092915050565b600061141e8260656000868152602001908152602001600020600001612cac90919063ffffffff16565b905092915050565b6060609b8054600181600116156101000203166002900480601f0160208091040260200160405190810160405280929190818152602001828054600181600116156101000203166002900480156114be5780601f10611493576101008083540402835291602001916114be565b820191906000526020600020905b8154815290600101906020018083116114a157829003601f168201915b5050505050905090565b6000801b81565b60006115926114dc611eac565b8461158d85604051806060016040528060258152602001613e8d6025913960986000611506611eac565b73ffffffffffffffffffffffffffffffffffffffff1673ffffffffffffffffffffffffffffffffffffffff16815260200190815260200160002060008a73ffffffffffffffffffffffffffffffffffffffff1673ffffffffffffffffffffffffffffffffffffffff168152602001908152602001600020546123709092919063ffffffff16565b611eb4565b6001905092915050565b60006115b06115a9611eac565b84846120ab565b6001905092915050565b6115c76000801b336113f4565b61161c576040517f08c379a000000000000000000000000000000000000000000000000000000000815260040180806020018281038252603a815260200180613cac603a913960400191505060405180910390fd5b61162d611627611397565b826126d3565b50565b600061165060656000848152602001908152602001600020600001612cdc565b9050919050565b7f9f2df0fed2c77648de5860a4cc508cd0818c85b8b8a1ab4ceeef8d981c8956a681565b6116a2606560008481526020019081526020016000206002015461169d611eac565b6113f4565b6116f7576040517f08c379a0000000000000000000000000000000000000000000000000000000008152600401808060200182810382526030815260200180613d0c6030913960400191505060405180910390fd5b61170182826124c4565b5050565b6000609860008473ffffffffffffffffffffffffffffffffffffffff1673ffffffffffffffffffffffffffffffffffffffff16815260200190815260200160002060008373ffffffffffffffffffffffffffffffffffffffff1673ffffffffffffffffffffffffffffffffffffffff16815260200190815260200160002054905092915050565b600060019054906101000a900460ff16806117ab57506117aa612cf1565b5b806117c1575060008054906101000a900460ff16155b611816576040517f08c379a000000000000000000000000000000000000000000000000000000000815260040180806020018281038252602e815260200180613d9a602e913960400191505060405180910390fd5b60008060019054906101000a900460ff161590508015611866576001600060016101000a81548160ff02191690831515021790555060016000806101000a81548160ff0219169083151502179055505b3361019160006101000a81548173ffffffffffffffffffffffffffffffffffffffff021916908373ffffffffffffffffffffffffffffffffffffffff1602179055503361019260006101000a81548173ffffffffffffffffffffffffffffffffffffffff021916908373ffffffffffffffffffffffffffffffffffffffff1602179055506118f2612d08565b6118fa612e16565b61192a6000801b61019260009054906101000a900473ffffffffffffffffffffffffffffffffffffffff16612f14565b61195a6000801b61019160009054906101000a900473ffffffffffffffffffffffffffffffffffffffff16612f14565b6119a77f9f2df0fed2c77648de5860a4cc508cd0818c85b8b8a1ab4ceeef8d981c8956a661019160009054906101000a900473ffffffffffffffffffffffffffffffffffffffff16612f14565b6119f47f9f2df0fed2c77648de5860a4cc508cd0818c85b8b8a1ab4ceeef8d981c8956a661019260009054906101000a900473ffffffffffffffffffffffffffffffffffffffff16612f14565b611b346101938054600181600116156101000203166002900480601f016020809104026020016040519081016040528092919081815260200182805460018160011615610100020316600290048015611a8e5780601f10611a6357610100808354040283529160200191611a8e565b820191906000526020600020905b815481529060010190602001808311611a7157829003601f168201915b50505050506101948054600181600116156101000203166002900480601f016020809104026020016040519081016040528092919081815260200182805460018160011615610100020316600290048015611b2a5780601f10611aff57610100808354040283529160200191611b2a565b820191906000526020600020905b815481529060010190602001808311611b0d57829003601f168201915b5050505050612a62565b611b4d61019560009054906101000a900460ff16612f22565b611b7d61019160009054906101000a900473ffffffffffffffffffffffffffffffffffffffff16610196546126d3565b611bd161019160009054906101000a900473ffffffffffffffffffffffffffffffffffffffff1661019160009054906101000a900473ffffffffffffffffffffffffffffffffffffffff1661019654611eb4565b611c2561019160009054906101000a900473ffffffffffffffffffffffffffffffffffffffff1661019260009054906101000a900473ffffffffffffffffffffffffffffffffffffffff1661019654611eb4565b611c5161019160009054906101000a900473ffffffffffffffffffffffffffffffffffffffff16611c99565b8015611c725760008060016101000a81548160ff0219169083151502179055505b50565b7f65d7a28e3265b37a6474929f336521b332c1681b933f6cb9f3376673440d862a81565b611ca1611eac565b73ffffffffffffffffffffffffffffffffffffffff1661019760009054906101000a900473ffffffffffffffffffffffffffffffffffffffff1673ffffffffffffffffffffffffffffffffffffffff1614611d64576040517f08c379a00000000000000000000000000000000000000000000000000000000081526004018080602001828103825260208152602001807f4f776e61626c653a2063616c6c6572206973206e6f7420746865206f776e657281525060200191505060405180910390fd5b600073ffffffffffffffffffffffffffffffffffffffff168173ffffffffffffffffffffffffffffffffffffffff161415611dea576040517f08c379a0000000000000000000000000000000000000000000000000000000008152600401808060200182810382526026815260200180613c646026913960400191505060405180910390fd5b8073ffffffffffffffffffffffffffffffffffffffff1661019760009054906101000a900473ffffffffffffffffffffffffffffffffffffffff1673ffffffffffffffffffffffffffffffffffffffff167f8be0079c531659141344cd1fd0a4f28419497f9722a3daafe3b4186f6b6457e060405160405180910390a38061019760006101000a81548173ffffffffffffffffffffffffffffffffffffffff021916908373ffffffffffffffffffffffffffffffffffffffff16021790555050565b600033905090565b600073ffffffffffffffffffffffffffffffffffffffff168373ffffffffffffffffffffffffffffffffffffffff161415611f3a576040517f08c379a0000000000000000000000000000000000000000000000000000000008152600401808060200182810382526024815260200180613e326024913960400191505060405180910390fd5b600073ffffffffffffffffffffffffffffffffffffffff168273ffffffffffffffffffffffffffffffffffffffff161415611fc0576040517f08c379a0000000000000000000000000000000000000000000000000000000008152600401808060200182810382526022815260200180613c8a6022913960400191505060405180910390fd5b80609860008573ffffffffffffffffffffffffffffffffffffffff1673ffffffffffffffffffffffffffffffffffffffff16815260200190815260200160002060008473ffffffffffffffffffffffffffffffffffffffff1673ffffffffffffffffffffffffffffffffffffffff168152602001908152602001600020819055508173ffffffffffffffffffffffffffffffffffffffff168373ffffffffffffffffffffffffffffffffffffffff167f8c5be1e5ebec7d5bd14f71427d1e84f3dd0314c0f7b2291e5b200ac8c7c3b925836040518082815260200191505060405180910390a3505050565b600073ffffffffffffffffffffffffffffffffffffffff168373ffffffffffffffffffffffffffffffffffffffff161415612131576040517f08c379a0000000000000000000000000000000000000000000000000000000008152600401808060200182810382526025815260200180613e0d6025913960400191505060405180910390fd5b600073ffffffffffffffffffffffffffffffffffffffff168273ffffffffffffffffffffffffffffffffffffffff1614156121b7576040517f08c379a0000000000000000000000000000000000000000000000000000000008152600401808060200182810382526023815260200180613bb76023913960400191505060405180910390fd5b6121c2838383612f40565b61222e81604051806060016040528060268152602001613ce660269139609760008773ffffffffffffffffffffffffffffffffffffffff1673ffffffffffffffffffffffffffffffffffffffff168152602001908152602001600020546123709092919063ffffffff16565b609760008573ffffffffffffffffffffffffffffffffffffffff1673ffffffffffffffffffffffffffffffffffffffff168152602001908152602001600020819055506122c381609760008573ffffffffffffffffffffffffffffffffffffffff1673ffffffffffffffffffffffffffffffffffffffff1681526020019081526020016000205461255890919063ffffffff16565b609760008473ffffffffffffffffffffffffffffffffffffffff1673ffffffffffffffffffffffffffffffffffffffff168152602001908152602001600020819055508173ffffffffffffffffffffffffffffffffffffffff168373ffffffffffffffffffffffffffffffffffffffff167fddf252ad1be2c89b69c2b068fc378daa952ba7f163c4a11628f55a4df523b3ef836040518082815260200191505060405180910390a3505050565b600083831115829061241d576040517f08c379a00000000000000000000000000000000000000000000000000000000081526004018080602001828103825283818151815260200191508051906020019080838360005b838110156123e25780820151818401526020810190506123c7565b50505050905090810190601f16801561240f5780820380516001836020036101000a031916815260200191505b509250505060405180910390fd5b5060008385039050809150509392505050565b6124588160656000858152602001908152602001600020600001612f5090919063ffffffff16565b156124c057612465611eac565b73ffffffffffffffffffffffffffffffffffffffff168173ffffffffffffffffffffffffffffffffffffffff16837f2f8788117e7eff1d82e926ec794901d17c78024a50270940304540a733656f0d60405160405180910390a45b5050565b6124ec8160656000858152602001908152602001600020600001612f8090919063ffffffff16565b15612554576124f9611eac565b73ffffffffffffffffffffffffffffffffffffffff168173ffffffffffffffffffffffffffffffffffffffff16837ff6391f5c32d9c69d2a47ea670b442974b53935d1edc7fd64eb21e047a839171b60405160405180910390a45b5050565b6000808284019050838110156125d6576040517f08c379a000000000000000000000000000000000000000000000000000000000815260040180806020018281038252601b8152602001807f536166654d6174683a206164646974696f6e206f766572666c6f77000000000081525060200191505060405180910390fd5b8091505092915050565b60fb60009054906101000a900460ff16612662576040517f08c379a00000000000000000000000000000000000000000000000000000000081526004018080602001828103825260148152602001807f5061757361626c653a206e6f742070617573656400000000000000000000000081525060200191505060405180910390fd5b600060fb60006101000a81548160ff0219169083151502179055507f5db9ee0a495bf2e6ff9c91a7834c1ba4fdd244a5e8aa4e537bd38aeae4b073aa6126a6611eac565b604051808273ffffffffffffffffffffffffffffffffffffffff16815260200191505060405180910390a1565b600073ffffffffffffffffffffffffffffffffffffffff168273ffffffffffffffffffffffffffffffffffffffff161415612776576040517f08c379a000000000000000000000000000000000000000000000000000000000815260040180806020018281038252601f8152602001807f45524332303a206d696e7420746f20746865207a65726f20616464726573730081525060200191505060405180910390fd5b61278260008383612f40565b6127978160995461255890919063ffffffff16565b6099819055506127ef81609760008573ffffffffffffffffffffffffffffffffffffffff1673ffffffffffffffffffffffffffffffffffffffff1681526020019081526020016000205461255890919063ffffffff16565b609760008473ffffffffffffffffffffffffffffffffffffffff1673ffffffffffffffffffffffffffffffffffffffff168152602001908152602001600020819055508173ffffffffffffffffffffffffffffffffffffffff16600073ffffffffffffffffffffffffffffffffffffffff167fddf252ad1be2c89b69c2b068fc378daa952ba7f163c4a11628f55a4df523b3ef836040518082815260200191505060405180910390a35050565b600073ffffffffffffffffffffffffffffffffffffffff168273ffffffffffffffffffffffffffffffffffffffff161415612922576040517f08c379a0000000000000000000000000000000000000000000000000000000008152600401808060200182810382526021815260200180613dec6021913960400191505060405180910390fd5b61292e82600083612f40565b61299a81604051806060016040528060228152602001613c0960229139609760008673ffffffffffffffffffffffffffffffffffffffff1673ffffffffffffffffffffffffffffffffffffffff168152602001908152602001600020546123709092919063ffffffff16565b609760008473ffffffffffffffffffffffffffffffffffffffff1673ffffffffffffffffffffffffffffffffffffffff168152602001908152602001600020819055506129f281609954612fb090919063ffffffff16565b609981905550600073ffffffffffffffffffffffffffffffffffffffff168273ffffffffffffffffffffffffffffffffffffffff167fddf252ad1be2c89b69c2b068fc378daa952ba7f163c4a11628f55a4df523b3ef836040518082815260200191505060405180910390a35050565b600060019054906101000a900460ff1680612a815750612a80612cf1565b5b80612a97575060008054906101000a900460ff16155b612aec576040517f08c379a000000000000000000000000000000000000000000000000000000000815260040180806020018281038252602e815260200180613d9a602e913960400191505060405180910390fd5b60008060019054906101000a900460ff161590508015612b3c576001600060016101000a81548160ff02191690831515021790555060016000806101000a81548160ff0219169083151502179055505b612b44612ffa565b612b4c612e16565b612b5683836130f8565b612b5e613242565b612b66613340565b612b6e613459565b612b788383613557565b8015612b995760008060016101000a81548160ff0219169083151502179055505b505050565b60fb60009054906101000a900460ff1615612c21576040517f08c379a00000000000000000000000000000000000000000000000000000000081526004018080602001828103825260108152602001807f5061757361626c653a207061757365640000000000000000000000000000000081525060200191505060405180910390fd5b600160fb60006101000a81548160ff0219169083151502179055507f62e78cea01bee320cd4e420270b5ea74000d11b0c9f74754ebdbfc544b05a258612c65611eac565b604051808273ffffffffffffffffffffffffffffffffffffffff16815260200191505060405180910390a1565b6000612ca183600001836136cd565b60001c905092915050565b6000612cd4836000018373ffffffffffffffffffffffffffffffffffffffff1660001b613750565b905092915050565b6000612cea82600001613773565b9050919050565b6000803090506000813b9050600081149250505090565b600060019054906101000a900460ff1680612d275750612d26612cf1565b5b80612d3d575060008054906101000a900460ff16155b612d92576040517f08c379a000000000000000000000000000000000000000000000000000000000815260040180806020018281038252602e815260200180613d9a602e913960400191505060405180910390fd5b60008060019054906101000a900460ff161590508015612de2576001600060016101000a81548160ff02191690831515021790555060016000806101000a81548160ff0219169083151502179055505b612dea612ffa565b612df2613784565b8015612e135760008060016101000a81548160ff0219169083151502179055505b50565b600060019054906101000a900460ff1680612e355750612e34612cf1565b5b80612e4b575060008054906101000a900460ff16155b612ea0576040517f08c379a000000000000000000000000000000000000000000000000000000000815260040180806020018281038252602e815260200180613d9a602e913960400191505060405180910390fd5b60008060019054906101000a900460ff161590508015612ef0576001600060016101000a81548160ff02191690831515021790555060016000806101000a81548160ff0219169083151502179055505b8015612f115760008060016101000a81548160ff0219169083151502179055505b50565b612f1e8282612430565b5050565b80609c60006101000a81548160ff021916908360ff16021790555050565b612f4b83838361392c565b505050565b6000612f78836000018373ffffffffffffffffffffffffffffffffffffffff1660001b61399a565b905092915050565b6000612fa8836000018373ffffffffffffffffffffffffffffffffffffffff1660001b613a0a565b905092915050565b6000612ff283836040518060400160405280601e81526020017f536166654d6174683a207375627472616374696f6e206f766572666c6f770000815250612370565b905092915050565b600060019054906101000a900460ff16806130195750613018612cf1565b5b8061302f575060008054906101000a900460ff16155b613084576040517f08c379a000000000000000000000000000000000000000000000000000000000815260040180806020018281038252602e815260200180613d9a602e913960400191505060405180910390fd5b60008060019054906101000a900460ff1615905080156130d4576001600060016101000a81548160ff02191690831515021790555060016000806101000a81548160ff0219169083151502179055505b80156130f55760008060016101000a81548160ff0219169083151502179055505b50565b600060019054906101000a900460ff16806131175750613116612cf1565b5b8061312d575060008054906101000a900460ff16155b613182576040517f08c379a000000000000000000000000000000000000000000000000000000000815260040180806020018281038252602e815260200180613d9a602e913960400191505060405180910390fd5b60008060019054906101000a900460ff1615905080156131d2576001600060016101000a81548160ff02191690831515021790555060016000806101000a81548160ff0219169083151502179055505b82609a90805190602001906131e8929190613af7565b5081609b90805190602001906131ff929190613af7565b506012609c60006101000a81548160ff021916908360ff160217905550801561323d5760008060016101000a81548160ff0219169083151502179055505b505050565b600060019054906101000a900460ff16806132615750613260612cf1565b5b80613277575060008054906101000a900460ff16155b6132cc576040517f08c379a000000000000000000000000000000000000000000000000000000000815260040180806020018281038252602e815260200180613d9a602e913960400191505060405180910390fd5b60008060019054906101000a900460ff16159050801561331c576001600060016101000a81548160ff02191690831515021790555060016000806101000a81548160ff0219169083151502179055505b801561333d5760008060016101000a81548160ff0219169083151502179055505b50565b600060019054906101000a900460ff168061335f575061335e612cf1565b5b80613375575060008054906101000a900460ff16155b6133ca576040517f08c379a000000000000000000000000000000000000000000000000000000000815260040180806020018281038252602e815260200180613d9a602e913960400191505060405180910390fd5b60008060019054906101000a900460ff16159050801561341a576001600060016101000a81548160ff02191690831515021790555060016000806101000a81548160ff0219169083151502179055505b600060fb60006101000a81548160ff02191690831515021790555080156134565760008060016101000a81548160ff0219169083151502179055505b50565b600060019054906101000a900460ff16806134785750613477612cf1565b5b8061348e575060008054906101000a900460ff16155b6134e3576040517f08c379a000000000000000000000000000000000000000000000000000000000815260040180806020018281038252602e815260200180613d9a602e913960400191505060405180910390fd5b60008060019054906101000a900460ff161590508015613533576001600060016101000a81548160ff02191690831515021790555060016000806101000a81548160ff0219169083151502179055505b80156135545760008060016101000a81548160ff0219169083151502179055505b50565b600060019054906101000a900460ff16806135765750613575612cf1565b5b8061358c575060008054906101000a900460ff16155b6135e1576040517f08c379a000000000000000000000000000000000000000000000000000000000815260040180806020018281038252602e815260200180613d9a602e913960400191505060405180910390fd5b60008060019054906101000a900460ff161590508015613631576001600060016101000a81548160ff02191690831515021790555060016000806101000a81548160ff0219169083151502179055505b6136456000801b613640611eac565b612f14565b6136767f9f2df0fed2c77648de5860a4cc508cd0818c85b8b8a1ab4ceeef8d981c8956a6613671611eac565b612f14565b6136a77f65d7a28e3265b37a6474929f336521b332c1681b933f6cb9f3376673440d862a6136a2611eac565b612f14565b80156136c85760008060016101000a81548160ff0219169083151502179055505b505050565b60008183600001805490501161372e576040517f08c379a0000000000000000000000000000000000000000000000000000000008152600401808060200182810382526022815260200180613b956022913960400191505060405180910390fd5b82600001828154811061373d57fe5b9060005260206000200154905092915050565b600080836001016000848152602001908152602001600020541415905092915050565b600081600001805490509050919050565b600060019054906101000a900460ff16806137a357506137a2612cf1565b5b806137b9575060008054906101000a900460ff16155b61380e576040517f08c379a000000000000000000000000000000000000000000000000000000000815260040180806020018281038252602e815260200180613d9a602e913960400191505060405180910390fd5b60008060019054906101000a900460ff16159050801561385e576001600060016101000a81548160ff02191690831515021790555060016000806101000a81548160ff0219169083151502179055505b6000613868611eac565b90508061019760006101000a81548173ffffffffffffffffffffffffffffffffffffffff021916908373ffffffffffffffffffffffffffffffffffffffff1602179055508073ffffffffffffffffffffffffffffffffffffffff16600073ffffffffffffffffffffffffffffffffffffffff167f8be0079c531659141344cd1fd0a4f28419497f9722a3daafe3b4186f6b6457e060405160405180910390a35080156139295760008060016101000a81548160ff0219169083151502179055505b50565b613937838383613af2565b61393f6110b7565b15613995576040517f08c379a000000000000000000000000000000000000000000000000000000000815260040180806020018281038252602a815260200180613ee1602a913960400191505060405180910390fd5b505050565b60006139a68383613750565b6139ff578260000182908060018154018082558091505060019003906000526020600020016000909190919091505582600001805490508360010160008481526020019081526020016000208190555060019050613a04565b600090505b92915050565b60008083600101600084815260200190815260200160002054905060008114613ae65760006001820390506000600186600001805490500390506000866000018281548110613a5557fe5b9060005260206000200154905080876000018481548110613a7257fe5b9060005260206000200181905550600183018760010160008381526020019081526020016000208190555086600001805480613aaa57fe5b60019003818190600052602060002001600090559055866001016000878152602001908152602001600020600090556001945050505050613aec565b60009150505b92915050565b505050565b828054600181600116156101000203166002900490600052602060002090601f016020900481019282601f10613b3857805160ff1916838001178555613b66565b82800160010185558215613b66579182015b82811115613b65578251825591602001919060010190613b4a565b5b509050613b739190613b77565b5090565b5b80821115613b90576000816000905550600101613b78565b509056fe456e756d657261626c655365743a20696e646578206f7574206f6620626f756e647345524332303a207472616e7366657220746f20746865207a65726f2061646472657373416363657373436f6e74726f6c3a2073656e646572206d75737420626520616e2061646d696e20746f206772616e7445524332303a206275726e20616d6f756e7420657863656564732062616c616e636545524332305072657365744d696e7465725061757365723a206d75737420686176652070617573657220726f6c6520746f20756e70617573654f776e61626c653a206e6577206f776e657220697320746865207a65726f206164647265737345524332303a20617070726f766520746f20746865207a65726f20616464726573734d6574616c54726164696e67436f6d70616e79536d617274436f6e74726163743a204f6e6c79206f776e6572206f722061646d696e207573657245524332303a207472616e7366657220616d6f756e7420657863656564732062616c616e6365416363657373436f6e74726f6c3a2073656e646572206d75737420626520616e2061646d696e20746f207265766f6b6545524332303a207472616e7366657220616d6f756e74206578636565647320616c6c6f77616e636545524332305072657365744d696e7465725061757365723a206d7573742068617665206d696e74657220726f6c6520746f206d696e74436f6e747261637420696e7374616e63652068617320616c7265616479206265656e20696e697469616c697a656445524332303a206275726e20616d6f756e74206578636565647320616c6c6f77616e636545524332303a206275726e2066726f6d20746865207a65726f206164647265737345524332303a207472616e736665722066726f6d20746865207a65726f206164647265737345524332303a20617070726f76652066726f6d20746865207a65726f206164647265737345524332305072657365744d696e7465725061757365723a206d75737420686176652070617573657220726f6c6520746f20706175736545524332303a2064656372656173656420616c6c6f77616e63652062656c6f77207a65726f416363657373436f6e74726f6c3a2063616e206f6e6c792072656e6f756e636520726f6c657320666f722073656c6645524332305061757361626c653a20746f6b656e207472616e73666572207768696c6520706175736564a2646970667358221220dc00d8403d62a18d314724440d49af3a0f27fcfb993dcef6576d9791f597bc7f64736f6c634300060c0033",
  "compiler": {
    "name": "solc",
    "version": "0.6.12+commit.27d51765.Emscripten.clang",
    "optimizer": {
      "enabled": false,
      "runs": 200
    },
    "evmVersion": "petersburg"
  }
}